{
  "_format": "hh-sol-artifact-1",
  "contractName": "Factory",
  "sourceName": "contracts/Factory.sol",
  "abi": [
    {
      "inputs": [
        {
          "internalType": "contract IAuction",
          "name": "_auctionImpl",
          "type": "address"
        },
        {
          "internalType": "contract IBasket",
          "name": "_basketImpl",
          "type": "address"
        }
      ],
      "stateMutability": "nonpayable",
      "type": "constructor"
    },
    {
      "anonymous": false,
      "inputs": [
        {
          "indexed": true,
          "internalType": "address",
          "name": "basket",
          "type": "address"
        },
        {
          "indexed": false,
          "internalType": "uint256",
          "name": "id",
          "type": "uint256"
        }
      ],
      "name": "BasketCreated",
      "type": "event"
    },
    {
      "anonymous": false,
      "inputs": [
        {
          "indexed": true,
          "internalType": "address",
          "name": "proposer",
          "type": "address"
        },
        {
          "indexed": false,
          "internalType": "string",
          "name": "tokenName",
          "type": "string"
        },
        {
          "indexed": true,
          "internalType": "uint256",
          "name": "id",
          "type": "uint256"
        }
      ],
      "name": "BasketLicenseProposed",
      "type": "event"
    },
    {
      "anonymous": false,
      "inputs": [
        {
          "indexed": false,
          "internalType": "uint256",
          "name": "",
          "type": "uint256"
        }
      ],
      "name": "ChangedAuctionDecrement",
      "type": "event"
    },
    {
      "anonymous": false,
      "inputs": [
        {
          "indexed": false,
          "internalType": "uint256",
          "name": "",
          "type": "uint256"
        }
      ],
      "name": "ChangedAuctionMultipler",
      "type": "event"
    },
    {
      "anonymous": false,
      "inputs": [
        {
          "indexed": false,
          "internalType": "uint256",
          "name": "",
          "type": "uint256"
        }
      ],
      "name": "ChangedBondPercentDiv",
      "type": "event"
    },
    {
      "anonymous": false,
      "inputs": [
        {
          "indexed": false,
          "internalType": "uint256",
          "name": "",
          "type": "uint256"
        }
      ],
      "name": "ChangedMinLicenseFee",
      "type": "event"
    },
    {
      "anonymous": false,
      "inputs": [
        {
          "indexed": false,
          "internalType": "uint256",
          "name": "",
          "type": "uint256"
        }
      ],
      "name": "ChangedOwnerSplit",
      "type": "event"
    },
    {
      "anonymous": false,
      "inputs": [
        {
          "indexed": false,
          "internalType": "uint256",
          "name": "",
          "type": "uint256"
        }
      ],
      "name": "NewAuctionDecrementSubmitted",
      "type": "event"
    },
    {
      "anonymous": false,
      "inputs": [
        {
          "indexed": false,
          "internalType": "uint256",
          "name": "",
          "type": "uint256"
        }
      ],
      "name": "NewAuctionMultiplierSubmitted",
      "type": "event"
    },
    {
      "anonymous": false,
      "inputs": [
        {
          "indexed": false,
          "internalType": "uint256",
          "name": "",
          "type": "uint256"
        }
      ],
      "name": "NewBondPercentDivSubmitted",
      "type": "event"
    },
    {
      "anonymous": false,
      "inputs": [
        {
          "indexed": false,
          "internalType": "uint256",
          "name": "",
          "type": "uint256"
        }
      ],
      "name": "NewMinLicenseFeeSubmitted",
      "type": "event"
    },
    {
      "anonymous": false,
      "inputs": [
        {
          "indexed": false,
          "internalType": "uint256",
          "name": "",
          "type": "uint256"
        }
      ],
      "name": "NewOwnerSplitSubmitted",
      "type": "event"
    },
    {
      "anonymous": false,
      "inputs": [
        {
          "indexed": true,
          "internalType": "address",
          "name": "previousOwner",
          "type": "address"
        },
        {
          "indexed": true,
          "internalType": "address",
          "name": "newOwner",
          "type": "address"
        }
      ],
      "name": "OwnershipTransferred",
      "type": "event"
    },
    {
      "inputs": [],
      "name": "TIMELOCK_DURATION",
      "outputs": [
        {
          "internalType": "uint256",
          "name": "",
          "type": "uint256"
        }
      ],
      "stateMutability": "view",
      "type": "function"
    },
    {
      "inputs": [],
      "name": "auctionDecrement",
      "outputs": [
        {
          "internalType": "uint256",
          "name": "",
          "type": "uint256"
        }
      ],
      "stateMutability": "view",
      "type": "function"
    },
    {
      "inputs": [],
      "name": "auctionImpl",
      "outputs": [
        {
          "internalType": "contract IAuction",
          "name": "",
          "type": "address"
        }
      ],
      "stateMutability": "view",
      "type": "function"
    },
    {
      "inputs": [],
      "name": "auctionMultiplier",
      "outputs": [
        {
          "internalType": "uint256",
          "name": "",
          "type": "uint256"
        }
      ],
      "stateMutability": "view",
      "type": "function"
    },
    {
      "inputs": [],
      "name": "basketImpl",
      "outputs": [
        {
          "internalType": "contract IBasket",
          "name": "",
          "type": "address"
        }
      ],
      "stateMutability": "view",
      "type": "function"
    },
    {
      "inputs": [],
      "name": "bondPercentDiv",
      "outputs": [
        {
          "internalType": "uint256",
          "name": "",
          "type": "uint256"
        }
      ],
      "stateMutability": "view",
      "type": "function"
    },
    {
      "inputs": [
        {
          "internalType": "uint256",
          "name": "idNumber",
          "type": "uint256"
        }
      ],
      "name": "createBasket",
      "outputs": [
        {
          "internalType": "contract IBasket",
          "name": "",
          "type": "address"
        }
      ],
      "stateMutability": "nonpayable",
      "type": "function"
    },
    {
      "inputs": [
        {
          "internalType": "uint256",
          "name": "id",
          "type": "uint256"
        }
      ],
      "name": "getProposalWeights",
      "outputs": [
        {
          "internalType": "address[]",
          "name": "",
          "type": "address[]"
        },
        {
          "internalType": "uint256[]",
          "name": "",
          "type": "uint256[]"
        }
      ],
      "stateMutability": "view",
      "type": "function"
    },
    {
      "inputs": [],
      "name": "minLicenseFee",
      "outputs": [
        {
          "internalType": "uint256",
          "name": "",
          "type": "uint256"
        }
      ],
      "stateMutability": "view",
      "type": "function"
    },
    {
      "inputs": [],
      "name": "owner",
      "outputs": [
        {
          "internalType": "address",
          "name": "",
          "type": "address"
        }
      ],
      "stateMutability": "view",
      "type": "function"
    },
    {
      "inputs": [],
      "name": "ownerSplit",
      "outputs": [
        {
          "internalType": "uint256",
          "name": "",
          "type": "uint256"
        }
      ],
      "stateMutability": "view",
      "type": "function"
    },
    {
      "inputs": [],
      "name": "pendingAuctionDecrement",
      "outputs": [
        {
          "internalType": "uint256",
          "name": "change",
          "type": "uint256"
        },
        {
          "internalType": "uint256",
          "name": "timestamp",
          "type": "uint256"
        }
      ],
      "stateMutability": "view",
      "type": "function"
    },
    {
      "inputs": [],
      "name": "pendingAuctionMultiplier",
      "outputs": [
        {
          "internalType": "uint256",
          "name": "change",
          "type": "uint256"
        },
        {
          "internalType": "uint256",
          "name": "timestamp",
          "type": "uint256"
        }
      ],
      "stateMutability": "view",
      "type": "function"
    },
    {
      "inputs": [],
      "name": "pendingBondPercentDiv",
      "outputs": [
        {
          "internalType": "uint256",
          "name": "change",
          "type": "uint256"
        },
        {
          "internalType": "uint256",
          "name": "timestamp",
          "type": "uint256"
        }
      ],
      "stateMutability": "view",
      "type": "function"
    },
    {
      "inputs": [],
      "name": "pendingMinLicenseFee",
      "outputs": [
        {
          "internalType": "uint256",
          "name": "change",
          "type": "uint256"
        },
        {
          "internalType": "uint256",
          "name": "timestamp",
          "type": "uint256"
        }
      ],
      "stateMutability": "view",
      "type": "function"
    },
    {
      "inputs": [],
      "name": "pendingOwnerSplit",
      "outputs": [
        {
          "internalType": "uint256",
          "name": "change",
          "type": "uint256"
        },
        {
          "internalType": "uint256",
          "name": "timestamp",
          "type": "uint256"
        }
      ],
      "stateMutability": "view",
      "type": "function"
    },
    {
      "inputs": [
        {
          "internalType": "uint256",
          "name": "proposalId",
          "type": "uint256"
        }
      ],
      "name": "proposal",
      "outputs": [
        {
          "components": [
            {
              "internalType": "uint256",
              "name": "licenseFee",
              "type": "uint256"
            },
            {
              "internalType": "string",
              "name": "tokenName",
              "type": "string"
            },
            {
              "internalType": "string",
              "name": "tokenSymbol",
              "type": "string"
            },
            {
              "internalType": "address",
              "name": "proposer",
              "type": "address"
            },
            {
              "internalType": "address[]",
              "name": "tokens",
              "type": "address[]"
            },
            {
              "internalType": "uint256[]",
              "name": "weights",
              "type": "uint256[]"
            },
            {
              "internalType": "address",
              "name": "basket",
              "type": "address"
            },
            {
              "internalType": "uint256",
              "name": "maxSupply",
              "type": "uint256"
            }
          ],
          "internalType": "struct IFactory.Proposal",
          "name": "",
          "type": "tuple"
        }
      ],
      "stateMutability": "view",
      "type": "function"
    },
    {
      "inputs": [
        {
          "internalType": "uint256[]",
          "name": "_ids",
          "type": "uint256[]"
        }
      ],
      "name": "proposals",
      "outputs": [
        {
          "components": [
            {
              "internalType": "uint256",
              "name": "licenseFee",
              "type": "uint256"
            },
            {
              "internalType": "string",
              "name": "tokenName",
              "type": "string"
            },
            {
              "internalType": "string",
              "name": "tokenSymbol",
              "type": "string"
            },
            {
              "internalType": "address",
              "name": "proposer",
              "type": "address"
            },
            {
              "internalType": "address[]",
              "name": "tokens",
              "type": "address[]"
            },
            {
              "internalType": "uint256[]",
              "name": "weights",
              "type": "uint256[]"
            },
            {
              "internalType": "address",
              "name": "basket",
              "type": "address"
            },
            {
              "internalType": "uint256",
              "name": "maxSupply",
              "type": "uint256"
            }
          ],
          "internalType": "struct IFactory.Proposal[]",
          "name": "",
          "type": "tuple[]"
        }
      ],
      "stateMutability": "view",
      "type": "function"
    },
    {
      "inputs": [],
      "name": "proposalsLength",
      "outputs": [
        {
          "internalType": "uint256",
          "name": "",
          "type": "uint256"
        }
      ],
      "stateMutability": "view",
      "type": "function"
    },
    {
      "inputs": [
        {
          "internalType": "uint256",
          "name": "licenseFee",
          "type": "uint256"
        },
        {
          "internalType": "string",
          "name": "tokenName",
          "type": "string"
        },
        {
          "internalType": "string",
          "name": "tokenSymbol",
          "type": "string"
        },
        {
          "internalType": "address[]",
          "name": "tokens",
          "type": "address[]"
        },
        {
          "internalType": "uint256[]",
          "name": "weights",
          "type": "uint256[]"
        },
        {
          "internalType": "uint256",
          "name": "maxSupply",
          "type": "uint256"
        }
      ],
      "name": "proposeBasketLicense",
      "outputs": [
        {
          "internalType": "uint256",
          "name": "id",
          "type": "uint256"
        }
      ],
      "stateMutability": "nonpayable",
      "type": "function"
    },
    {
      "inputs": [],
      "name": "renounceOwnership",
      "outputs": [],
      "stateMutability": "nonpayable",
      "type": "function"
    },
    {
      "inputs": [
        {
          "internalType": "uint256",
          "name": "newAuctionDecrement",
          "type": "uint256"
        }
      ],
      "name": "setAuctionDecrement",
      "outputs": [],
      "stateMutability": "nonpayable",
      "type": "function"
    },
    {
      "inputs": [
        {
          "internalType": "uint256",
          "name": "newAuctionMultiplier",
          "type": "uint256"
        }
      ],
      "name": "setAuctionMultiplier",
      "outputs": [],
      "stateMutability": "nonpayable",
      "type": "function"
    },
    {
      "inputs": [
        {
          "internalType": "uint256",
          "name": "newBondPercentDiv",
          "type": "uint256"
        }
      ],
      "name": "setBondPercentDiv",
      "outputs": [],
      "stateMutability": "nonpayable",
      "type": "function"
    },
    {
      "inputs": [
        {
          "internalType": "uint256",
          "name": "newMinLicenseFee",
          "type": "uint256"
        }
      ],
      "name": "setMinLicenseFee",
      "outputs": [],
      "stateMutability": "nonpayable",
      "type": "function"
    },
    {
      "inputs": [
        {
          "internalType": "uint256",
          "name": "newOwnerSplit",
          "type": "uint256"
        }
      ],
      "name": "setOwnerSplit",
      "outputs": [],
      "stateMutability": "nonpayable",
      "type": "function"
    },
    {
      "inputs": [
        {
          "internalType": "address",
          "name": "newOwner",
          "type": "address"
        }
      ],
      "name": "transferOwnership",
      "outputs": [],
      "stateMutability": "nonpayable",
      "type": "function"
    }
  ],
  "bytecode": "0x608060405266038d7ea4c6800060055561271060065560026007556101906008553480156200002d57600080fd5b5060405162002519380380620025198339810160408190526200005091620000e1565b6200005b3362000091565b60018055600380546001600160a01b039384166001600160a01b0319918216179091556004805492909316911617905562000139565b600080546001600160a01b038381166001600160a01b0319831681178455604051919092169283917f8be0079c531659141344cd1fd0a4f28419497f9722a3daafe3b4186f6b6457e09190a35050565b60008060408385031215620000f557600080fd5b8251620001028162000120565b6020840151909250620001158162000120565b809150509250929050565b6001600160a01b03811681146200013657600080fd5b50565b6123d080620001496000396000f3fe608060405234801561001057600080fd5b50600436106101495760003560e01c8063063dff7f1461014e5780630ef3828d1461016a57806317e463d71461017f57806319d01383146101925780631e6d5a4b1461019b57806329add879146101a457806330326c17146101b7578063334c1fea146101d7578063428eb5381461020257806344c7c867146102155780634623c81e1461021d578063588ac88514610227578063715018a61461024a5780638d4e9424146102525780638da5cb5b1461026557806391047e981461026d5780639866c5611461027b578063a26d708f1461028e578063ac6aca321461029c578063b35b7fdd146102bd578063beabd285146102d0578063c28d7c08146102f0578063d5172c72146102fe578063db92164d14610307578063df79b41b14610310578063f2fde38b1461031e578063f439215514610331575b600080fd5b61015760075481565b6040519081526020015b60405180910390f35b61017d610178366004611ea5565b610344565b005b61017d61018d366004611ea5565b61042d565b61015760085481565b61015760115481565b6101576101b2366004611ed7565b610503565b6101ca6101c5366004611ea5565b610740565b6040516101619190612217565b6101ea6101e5366004611ea5565b610991565b6040516001600160a01b039091168152602001610161565b6003546101ea906001600160a01b031681565b600254610157565b6101576206978081565b600f54601054610235919082565b60408051928352602083019190915201610161565b61017d610f00565b61017d610260366004611ea5565b610f3b565b6101ea611011565b600b54600c54610235919082565b6004546101ea906001600160a01b031681565b601254601354610235919082565b6102af6102aa366004611ea5565b611020565b604051610161929190612123565b61017d6102cb366004611ea5565b611122565b6102e36102de366004611e47565b6111f8565b604051610161919061216d565b600d54600e54610235919082565b61015760055481565b61015760065481565b600954600a54610235919082565b61017d61032c366004611e2c565b6114f4565b61017d61033f366004611ea5565b611591565b3361034d611011565b6001600160a01b03161461037c5760405162461bcd60e51b8152600401610373906121e2565b60405180910390fd5b600f541580159061038e5750600f5481145b156103f1576010546103a49062069780906122a7565b4210156103b057600080fd5b60088190556000600f556040518181527f116bd6933b27e83ce26aa5341b6dd6d4457fc8557a0e55c7105a69d126e7a631906020015b60405180910390a150565b600f819055426010556040518181527f2e67d53c6cff57a0423c9b5734f10e19821d958ec8b702e8d433fc17efb1e6f0906020016103e6565b50565b33610436611011565b6001600160a01b03161461045c5760405162461bcd60e51b8152600401610373906121e2565b6009541580159061046e575060095481145b156104ca57600a546104849062069780906122a7565b42101561049057600080fd5b600581905560006009556040518181527f75ba28240d154f6661c455a91dd3295bc4ee38edec641d1b9d51c3904f8a244a906020016103e6565b600981905542600a556040518181527f5397ff4770f8f038f588f97466de0925450c73507ab821ff1ba6e9950c115d02906020016103e6565b60048054604051630b0a349960e01b81526000926001600160a01b0390921691630b0a349991610537918891889101612123565b60006040518083038186803b15801561054f57600080fd5b505afa158015610563573d6000803e3d6000fd5b5050505060055487101561057657600080fd5b604080516101008101825288815260208082018981529282018890523360608301526080820187905260a08201869052600060c0830181905260e0830186905260028054600181018255915282517f405787fa12a823e0f2b7631cc41b3ba8828b3321ca811111fa75cd3aa3bb5ace600890920291820190815593518051939485949093610628937f405787fa12a823e0f2b7631cc41b3ba8828b3321ca811111fa75cd3aa3bb5acf01920190611b4e565b5060408201518051610644916002840191602090910190611b4e565b5060608201516003820180546001600160a01b0319166001600160a01b0390921691909117905560808201518051610686916004840191602090910190611bd2565b5060a082015180516106a2916005840191602090910190611c27565b5060c08201516006820180546001600160a01b0319166001600160a01b0390921691909117905560e0909101516007909101556002546106e4906001906122bf565b336001600160a01b03167f87259fdd40e3ebebb2193d790df74b174838cd0ac8a879d73ddd81f755b0b9e58960405161071d91906121cf565b60405180910390a3600254610734906001906122bf565b98975050505050505050565b610748611c61565b6002828154811061075b5761075b61236e565b9060005260206000209060080201604051806101000160405290816000820154815260200160018201805461078f90612302565b80601f01602080910402602001604051908101604052809291908181526020018280546107bb90612302565b80156108085780601f106107dd57610100808354040283529160200191610808565b820191906000526020600020905b8154815290600101906020018083116107eb57829003601f168201915b5050505050815260200160028201805461082190612302565b80601f016020809104026020016040519081016040528092919081815260200182805461084d90612302565b801561089a5780601f1061086f5761010080835404028352916020019161089a565b820191906000526020600020905b81548152906001019060200180831161087d57829003601f168201915b505050918352505060038201546001600160a01b0316602080830191909152600483018054604080518285028101850182528281529401939283018282801561090c57602002820191906000526020600020905b81546001600160a01b031681526001909101906020018083116108ee575b505050505081526020016005820180548060200260200160405190810160405280929190818152602001828054801561096457602002820191906000526020600020905b815481526020019060010190808311610950575b505050918352505060068201546001600160a01b0316602082015260079091015460409091015292915050565b6000600260015414156109e65760405162461bcd60e51b815260206004820152601f60248201527f5265656e7472616e637947756172643a207265656e7472616e742063616c6c006044820152606401610373565b6002600181905550600060028381548110610a0357610a0361236e565b90600052602060002090600802016040518061010001604052908160008201548152602001600182018054610a3790612302565b80601f0160208091040260200160405190810160405280929190818152602001828054610a6390612302565b8015610ab05780601f10610a8557610100808354040283529160200191610ab0565b820191906000526020600020905b815481529060010190602001808311610a9357829003601f168201915b50505050508152602001600282018054610ac990612302565b80601f0160208091040260200160405190810160405280929190818152602001828054610af590612302565b8015610b425780601f10610b1757610100808354040283529160200191610b42565b820191906000526020600020905b815481529060010190602001808311610b2557829003601f168201915b505050918352505060038201546001600160a01b03166020808301919091526004830180546040805182850281018501825282815294019392830182828015610bb457602002820191906000526020600020905b81546001600160a01b03168152600190910190602001808311610b96575b5050505050815260200160058201805480602002602001604051908101604052809291908181526020018280548015610c0c57602002820191906000526020600020905b815481526020019060010190808311610bf8575b505050918352505060068201546001600160a01b03908116602083015260079092015460409091015260c08201519192501615610c4857600080fd5b600354600090610c60906001600160a01b031661167c565b600454909150600090610c7b906001600160a01b031661167c565b90508060028681548110610c9157610c9161236e565b6000918252602090912060089091020160060180546001600160a01b0319166001600160a01b0392831617905560405163485cc95560e01b81529083169063485cc95590610ce59084903090600401612109565b600060405180830381600087803b158015610cff57600080fd5b505af1158015610d13573d6000803e3d6000fd5b50506040516350bfad5d60e11b81526001600160a01b038416925063a17f5aba9150610d45908690869060040161222a565b600060405180830381600087803b158015610d5f57600080fd5b505af1158015610d73573d6000803e3d6000fd5b5050505060005b8360a0015151811015610e4957600084608001518281518110610d9f57610d9f61236e565b60200260200101519050610de633308760a001518581518110610dc457610dc461236e565b6020026020010151846001600160a01b0316611719909392919063ffffffff16565b610dfb6001600160a01b03821684600061178a565b610e36838660a001518481518110610e1557610e1561236e565b6020026020010151836001600160a01b031661178a9092919063ffffffff16565b5080610e418161233d565b915050610d7a565b50604051635b91d9a760e11b8152670de0b6b3a764000060048201523360248201526001600160a01b0382169063b723b34e90604401600060405180830381600087803b158015610e9957600080fd5b505af1158015610ead573d6000803e3d6000fd5b50505050806001600160a01b03167fa5d3d1bd2258069ef419303b0f1a69760ba50e62a8209ff3704fc26cd976454886604051610eec91815260200190565b60405180910390a260018055949350505050565b33610f09611011565b6001600160a01b031614610f2f5760405162461bcd60e51b8152600401610373906121e2565b610f3960006118b2565b565b33610f44611011565b6001600160a01b031614610f6a5760405162461bcd60e51b8152600401610373906121e2565b600d5415801590610f7c5750600d5481145b15610fd857600e54610f929062069780906122a7565b421015610f9e57600080fd5b60078190556000600d556040518181527f6fe4bed9c6ebf2930dad3a760e376452ed694b9e2b1bb42c6292376fc8f33894906020016103e6565b600d81905542600e556040518181527f55940e08394444ccfccda03a910313fe64365a283898349159acb7c7692f8bee906020016103e6565b6000546001600160a01b031690565b606080600283815481106110365761103661236e565b90600052602060002090600802016004016002848154811061105a5761105a61236e565b9060005260206000209060080201600501818054806020026020016040519081016040528092919081815260200182805480156110c057602002820191906000526020600020905b81546001600160a01b031681526001909101906020018083116110a2575b505050505091508080548060200260200160405190810160405280929190818152602001828054801561111257602002820191906000526020600020905b8154815260200190600101908083116110fe575b5050505050905091509150915091565b3361112b611011565b6001600160a01b0316146111515760405162461bcd60e51b8152600401610373906121e2565b600b54158015906111635750600b5481145b156111bf57600c546111799062069780906122a7565b42101561118557600080fd5b60068190556000600b556040518181527f87dde62fd48d1b35b178e834b222f797880e9ffd81882f43e6402ea3ae625c59906020016103e6565b600b81905542600c556040518181527f65dce45f8140f3aedfaadcce2a9de549a307c61dd1ceec78445b0b86ce988423906020016103e6565b80516060906000816001600160401b0381111561121757611217612384565b60405190808252806020026020018201604052801561125057816020015b61123d611c61565b8152602001906001900390816112355790505b50905060005b828110156114ec5760028582815181106112725761127261236e565b60200260200101518154811061128a5761128a61236e565b906000526020600020906008020160405180610100016040529081600082015481526020016001820180546112be90612302565b80601f01602080910402602001604051908101604052809291908181526020018280546112ea90612302565b80156113375780601f1061130c57610100808354040283529160200191611337565b820191906000526020600020905b81548152906001019060200180831161131a57829003601f168201915b5050505050815260200160028201805461135090612302565b80601f016020809104026020016040519081016040528092919081815260200182805461137c90612302565b80156113c95780601f1061139e576101008083540402835291602001916113c9565b820191906000526020600020905b8154815290600101906020018083116113ac57829003601f168201915b505050918352505060038201546001600160a01b0316602080830191909152600483018054604080518285028101850182528281529401939283018282801561143b57602002820191906000526020600020905b81546001600160a01b0316815260019091019060200180831161141d575b505050505081526020016005820180548060200260200160405190810160405280929190818152602001828054801561149357602002820191906000526020600020905b81548152602001906001019080831161147f575b505050918352505060068201546001600160a01b0316602082015260079091015460409091015282518390839081106114ce576114ce61236e565b602002602001018190525080806114e49061233d565b915050611256565b509392505050565b336114fd611011565b6001600160a01b0316146115235760405162461bcd60e51b8152600401610373906121e2565b6001600160a01b0381166115885760405162461bcd60e51b815260206004820152602660248201527f4f776e61626c653a206e6577206f776e657220697320746865207a65726f206160448201526564647265737360d01b6064820152608401610373565b61042a816118b2565b3361159a611011565b6001600160a01b0316146115c05760405162461bcd60e51b8152600401610373906121e2565b6702c68af0bb1400008111156115d557600080fd5b601254158015906115e7575060125481145b15611643576013546115fd9062069780906122a7565b42101561160957600080fd5b601181905560006012556040518181527fe5e25a890e40b39bd7ca0d084a2736b142cb1b2fd33f44c1353d40e8573ef288906020016103e6565b6012819055426013556040518181527feaf67a235645f132a189818a34130e4249f8a607bde92e5f47bfa81b729e5bd2906020016103e6565b6000604051733d602d80600a3d3981f3363d3d373d3d3d363d7360601b81528260601b60148201526e5af43d82803e903d91602b57fd5bf360881b60288201526037816000f09150506001600160a01b0381166117145760405162461bcd60e51b8152602060048201526016602482015275115490cc4c4d8dce8818dc99585d194819985a5b195960521b6044820152606401610373565b919050565b6040516001600160a01b03808516602483015283166044820152606481018290526117849085906323b872dd60e01b906084015b60408051601f198184030181529190526020810180516001600160e01b03166001600160e01b031990931692909217909152611902565b50505050565b8015806118125750604051636eb1769f60e11b81526001600160a01b0384169063dd62ed3e906117c09030908690600401612109565b60206040518083038186803b1580156117d857600080fd5b505afa1580156117ec573d6000803e3d6000fd5b505050506040513d601f19601f820116820180604052508101906118109190611ebe565b155b61187d5760405162461bcd60e51b815260206004820152603660248201527f5361666545524332303a20617070726f76652066726f6d206e6f6e2d7a65726f60448201527520746f206e6f6e2d7a65726f20616c6c6f77616e636560501b6064820152608401610373565b6040516001600160a01b0383166024820152604481018290526118ad90849063095ea7b360e01b9060640161174d565b505050565b600080546001600160a01b038381166001600160a01b0319831681178455604051919092169283917f8be0079c531659141344cd1fd0a4f28419497f9722a3daafe3b4186f6b6457e09190a35050565b6000611957826040518060400160405280602081526020017f5361666545524332303a206c6f772d6c6576656c2063616c6c206661696c6564815250856001600160a01b03166119d49092919063ffffffff16565b8051909150156118ad57808060200190518101906119759190611e83565b6118ad5760405162461bcd60e51b815260206004820152602a60248201527f5361666545524332303a204552433230206f7065726174696f6e20646964206e6044820152691bdd081cdd58d8d9595960b21b6064820152608401610373565b60606119e384846000856119ed565b90505b9392505050565b606082471015611a4e5760405162461bcd60e51b815260206004820152602660248201527f416464726573733a20696e73756666696369656e742062616c616e636520666f6044820152651c8818d85b1b60d21b6064820152608401610373565b843b611a9c5760405162461bcd60e51b815260206004820152601d60248201527f416464726573733a2063616c6c20746f206e6f6e2d636f6e74726163740000006044820152606401610373565b600080866001600160a01b03168587604051611ab891906120ed565b60006040518083038185875af1925050503d8060008114611af5576040519150601f19603f3d011682016040523d82523d6000602084013e611afa565b606091505b5091509150611b0a828286611b15565b979650505050505050565b60608315611b245750816119e6565b825115611b345782518084602001fd5b8160405162461bcd60e51b815260040161037391906121cf565b828054611b5a90612302565b90600052602060002090601f016020900481019282611b7c5760008555611bc2565b82601f10611b9557805160ff1916838001178555611bc2565b82800160010185558215611bc2579182015b82811115611bc2578251825591602001919060010190611ba7565b50611bce929150611cb8565b5090565b828054828255906000526020600020908101928215611bc2579160200282015b82811115611bc257825182546001600160a01b0319166001600160a01b03909116178255602090920191600190910190611bf2565b828054828255906000526020600020908101928215611bc25791602002820182811115611bc2578251825591602001919060010190611ba7565b60405180610100016040528060008152602001606081526020016060815260200160006001600160a01b03168152602001606081526020016060815260200160006001600160a01b03168152602001600081525090565b5b80821115611bce5760008155600101611cb9565b80356001600160a01b038116811461171457600080fd5b600082601f830112611cf557600080fd5b81356020611d0a611d0583612284565b612254565b80838252828201915082860187848660051b8901011115611d2a57600080fd5b60005b85811015611d5057611d3e82611ccd565b84529284019290840190600101611d2d565b5090979650505050505050565b600082601f830112611d6e57600080fd5b81356020611d7e611d0583612284565b80838252828201915082860187848660051b8901011115611d9e57600080fd5b60005b85811015611d5057813584529284019290840190600101611da1565b600082601f830112611dce57600080fd5b81356001600160401b03811115611de757611de7612384565b611dfa601f8201601f1916602001612254565b818152846020838601011115611e0f57600080fd5b816020850160208301376000918101602001919091529392505050565b600060208284031215611e3e57600080fd5b6119e682611ccd565b600060208284031215611e5957600080fd5b81356001600160401b03811115611e6f57600080fd5b611e7b84828501611d5d565b949350505050565b600060208284031215611e9557600080fd5b815180151581146119e657600080fd5b600060208284031215611eb757600080fd5b5035919050565b600060208284031215611ed057600080fd5b5051919050565b60008060008060008060c08789031215611ef057600080fd5b8635955060208701356001600160401b0380821115611f0e57600080fd5b611f1a8a838b01611dbd565b96506040890135915080821115611f3057600080fd5b611f3c8a838b01611dbd565b95506060890135915080821115611f5257600080fd5b611f5e8a838b01611ce4565b94506080890135915080821115611f7457600080fd5b50611f8189828a01611d5d565b92505060a087013590509295509295509295565b6001600160a01b03169052565b600081518084526020808501945080840160005b83811015611fdb5781516001600160a01b031687529582019590820190600101611fb6565b509495945050505050565b600081518084526020808501945080840160005b83811015611fdb57815187529582019590820190600101611ffa565b6000815180845261202e8160208601602086016122d6565b601f01601f19169290920160200192915050565b600061010082518452602083015181602086015261206282860182612016565b9150506040830151848203604086015261207c8282612016565b91505060608301516120916060860182611f95565b50608083015184820360808601526120a98282611fa2565b91505060a083015184820360a08601526120c38282611fe6565b91505060c08301516120d860c0860182611f95565b5060e083015160e08501528091505092915050565b600082516120ff8184602087016122d6565b9190910192915050565b6001600160a01b0392831681529116602082015260400190565b6040815260006121366040830185611fa2565b82810360208481019190915284518083528582019282019060005b81811015611d5057845183529383019391830191600101612151565b6000602080830181845280855180835260408601915060408160051b870101925083870160005b828110156121c257603f198886030184526121b0858351612042565b94509285019290850190600101612194565b5092979650505050505050565b6020815260006119e66020830184612016565b6020808252818101527f4f776e61626c653a2063616c6c6572206973206e6f7420746865206f776e6572604082015260600190565b6020815260006119e66020830184612042565b60408152600061223d6040830185612042565b905060018060a01b03831660208301529392505050565b604051601f8201601f191681016001600160401b038111828210171561227c5761227c612384565b604052919050565b60006001600160401b0382111561229d5761229d612384565b5060051b60200190565b600082198211156122ba576122ba612358565b500190565b6000828210156122d1576122d1612358565b500390565b60005b838110156122f15781810151838201526020016122d9565b838111156117845750506000910152565b600181811c9082168061231657607f821691505b6020821081141561233757634e487b7160e01b600052602260045260246000fd5b50919050565b600060001982141561235157612351612358565b5060010190565b634e487b7160e01b600052601160045260246000fd5b634e487b7160e01b600052603260045260246000fd5b634e487b7160e01b600052604160045260246000fdfea2646970667358221220099b897d8562ab91653124db7efd15b7963e81023040241cd7fdca26a13bec3164736f6c63430008070033",
  "linkReferences": {},
  "deployedLinkReferences": {}
}