{
  "_format": "hh-sol-artifact-1",
  "contractName": "Auction",
  "sourceName": "contracts/Auction.sol",
  "abi": [
    {
      "anonymous": false,
      "inputs": [
        {
          "indexed": false,
          "internalType": "address",
          "name": "_settler",
          "type": "address"
        }
      ],
      "name": "AuctionSettled",
      "type": "event"
    },
    {
      "anonymous": false,
      "inputs": [],
      "name": "AuctionStarted",
      "type": "event"
    },
    {
      "anonymous": false,
      "inputs": [
        {
          "indexed": false,
          "internalType": "address",
          "name": "_burned",
          "type": "address"
        },
        {
          "indexed": false,
          "internalType": "address",
          "name": "_burnee",
          "type": "address"
        },
        {
          "indexed": false,
          "internalType": "uint256",
          "name": "_amount",
          "type": "uint256"
        }
      ],
      "name": "BondBurned",
      "type": "event"
    },
    {
      "anonymous": false,
      "inputs": [
        {
          "indexed": false,
          "internalType": "address",
          "name": "_bonder",
          "type": "address"
        },
        {
          "indexed": false,
          "internalType": "uint256",
          "name": "_amount",
          "type": "uint256"
        }
      ],
      "name": "Bonded",
      "type": "event"
    },
    {
      "anonymous": false,
      "inputs": [
        {
          "indexed": false,
          "internalType": "contract IERC20",
          "name": "_token",
          "type": "address"
        },
        {
          "indexed": false,
          "internalType": "uint256",
          "name": "_amount",
          "type": "uint256"
        },
        {
          "indexed": false,
          "internalType": "uint256",
          "name": "_id",
          "type": "uint256"
        }
      ],
      "name": "BountyAdded",
      "type": "event"
    },
    {
      "anonymous": false,
      "inputs": [
        {
          "indexed": false,
          "internalType": "address",
          "name": "_claimer",
          "type": "address"
        },
        {
          "indexed": false,
          "internalType": "address",
          "name": "_token",
          "type": "address"
        },
        {
          "indexed": false,
          "internalType": "uint256",
          "name": "_amount",
          "type": "uint256"
        },
        {
          "indexed": false,
          "internalType": "uint256",
          "name": "_id",
          "type": "uint256"
        }
      ],
      "name": "BountyClaimed",
      "type": "event"
    },
    {
      "inputs": [
        {
          "internalType": "contract IERC20",
          "name": "token",
          "type": "address"
        },
        {
          "internalType": "uint256",
          "name": "amount",
          "type": "uint256"
        }
      ],
      "name": "addBounty",
      "outputs": [
        {
          "internalType": "uint256",
          "name": "",
          "type": "uint256"
        }
      ],
      "stateMutability": "nonpayable",
      "type": "function"
    },
    {
      "inputs": [],
      "name": "auctionBonder",
      "outputs": [
        {
          "internalType": "address",
          "name": "",
          "type": "address"
        }
      ],
      "stateMutability": "view",
      "type": "function"
    },
    {
      "inputs": [],
      "name": "auctionOngoing",
      "outputs": [
        {
          "internalType": "bool",
          "name": "",
          "type": "bool"
        }
      ],
      "stateMutability": "view",
      "type": "function"
    },
    {
      "inputs": [],
      "name": "auctionStart",
      "outputs": [
        {
          "internalType": "uint256",
          "name": "",
          "type": "uint256"
        }
      ],
      "stateMutability": "view",
      "type": "function"
    },
    {
      "inputs": [],
      "name": "basket",
      "outputs": [
        {
          "internalType": "contract IBasket",
          "name": "",
          "type": "address"
        }
      ],
      "stateMutability": "view",
      "type": "function"
    },
    {
      "inputs": [],
      "name": "bondAmount",
      "outputs": [
        {
          "internalType": "uint256",
          "name": "",
          "type": "uint256"
        }
      ],
      "stateMutability": "view",
      "type": "function"
    },
    {
      "inputs": [],
      "name": "bondBlock",
      "outputs": [
        {
          "internalType": "uint256",
          "name": "",
          "type": "uint256"
        }
      ],
      "stateMutability": "view",
      "type": "function"
    },
    {
      "inputs": [],
      "name": "bondBurn",
      "outputs": [],
      "stateMutability": "nonpayable",
      "type": "function"
    },
    {
      "inputs": [],
      "name": "bondForRebalance",
      "outputs": [],
      "stateMutability": "nonpayable",
      "type": "function"
    },
    {
      "inputs": [],
      "name": "bondTimestamp",
      "outputs": [
        {
          "internalType": "uint256",
          "name": "",
          "type": "uint256"
        }
      ],
      "stateMutability": "view",
      "type": "function"
    },
    {
      "inputs": [
        {
          "internalType": "uint256",
          "name": "blockNum",
          "type": "uint256"
        }
      ],
      "name": "calcIbRatio",
      "outputs": [
        {
          "internalType": "uint256",
          "name": "",
          "type": "uint256"
        }
      ],
      "stateMutability": "view",
      "type": "function"
    },
    {
      "inputs": [],
      "name": "endAuction",
      "outputs": [],
      "stateMutability": "nonpayable",
      "type": "function"
    },
    {
      "inputs": [],
      "name": "factory",
      "outputs": [
        {
          "internalType": "contract IFactory",
          "name": "",
          "type": "address"
        }
      ],
      "stateMutability": "view",
      "type": "function"
    },
    {
      "inputs": [],
      "name": "getCurrentNewIbRatio",
      "outputs": [
        {
          "internalType": "uint256",
          "name": "",
          "type": "uint256"
        }
      ],
      "stateMutability": "view",
      "type": "function"
    },
    {
      "inputs": [],
      "name": "hasBonded",
      "outputs": [
        {
          "internalType": "bool",
          "name": "",
          "type": "bool"
        }
      ],
      "stateMutability": "view",
      "type": "function"
    },
    {
      "inputs": [
        {
          "internalType": "address",
          "name": "basket_",
          "type": "address"
        },
        {
          "internalType": "address",
          "name": "factory_",
          "type": "address"
        }
      ],
      "name": "initialize",
      "outputs": [],
      "stateMutability": "nonpayable",
      "type": "function"
    },
    {
      "inputs": [],
      "name": "initialized",
      "outputs": [
        {
          "internalType": "bool",
          "name": "",
          "type": "bool"
        }
      ],
      "stateMutability": "view",
      "type": "function"
    },
    {
      "inputs": [],
      "name": "killAuction",
      "outputs": [],
      "stateMutability": "nonpayable",
      "type": "function"
    },
    {
      "inputs": [
        {
          "internalType": "uint256[]",
          "name": "bountyIDs",
          "type": "uint256[]"
        },
        {
          "internalType": "address[]",
          "name": "inputTokens",
          "type": "address[]"
        },
        {
          "internalType": "uint256[]",
          "name": "inputAmounts",
          "type": "uint256[]"
        },
        {
          "internalType": "address[]",
          "name": "outputTokens",
          "type": "address[]"
        },
        {
          "internalType": "uint256[]",
          "name": "outputAmounts",
          "type": "uint256[]"
        }
      ],
      "name": "settleAuctionWithBond",
      "outputs": [],
      "stateMutability": "nonpayable",
      "type": "function"
    },
    {
      "inputs": [
        {
          "internalType": "uint256[]",
          "name": "bountyIDs",
          "type": "uint256[]"
        },
        {
          "internalType": "address[]",
          "name": "inputTokens",
          "type": "address[]"
        },
        {
          "internalType": "uint256[]",
          "name": "inputAmounts",
          "type": "uint256[]"
        },
        {
          "internalType": "address[]",
          "name": "outputTokens",
          "type": "address[]"
        },
        {
          "internalType": "uint256[]",
          "name": "outputAmounts",
          "type": "uint256[]"
        }
      ],
      "name": "settleAuctionWithoutBond",
      "outputs": [],
      "stateMutability": "nonpayable",
      "type": "function"
    },
    {
      "inputs": [],
      "name": "startAuction",
      "outputs": [],
      "stateMutability": "nonpayable",
      "type": "function"
    }
  ],
  "bytecode": "0x608060405234801561001057600080fd5b506001600055611b17806100256000396000f3fe608060405234801561001057600080fd5b50600436106101075760003560e01c8063089e136e1461010c578063158ef93e1461012e5780631d5876a61461013b578063478c681e14610152578063485cc9551461015c5780634f245ef71461016f57806353f53f27146101785780635b315bfc1461018057806367c3b483146101935780636b64c769146101a057806380f323a7146101a8578063832ab529146101b1578063899a1e36146101ba57806399a9210e146101cd578063a282839e146101d5578063ae1d82f0146101e8578063c45a0155146101f0578063d4f668d514610210578063d940d81114610223578063edc832b314610236578063fe67a54b14610249575b600080fd5b6003546101199060ff1681565b60405190151581526020015b60405180910390f35b600b546101199060ff1681565b61014460055481565b604051908152602001610125565b61015a610251565b005b61015a61016a366004611648565b6104a3565b61014460025481565b610144610504565b61015a61018e366004611755565b610514565b6001546101199060ff1681565b61015a6105a7565b61014460045481565b61014460065481565b6101446101c8366004611848565b610609565b61015a610779565b6101446101e3366004611874565b6108e2565b61015a610ac7565b600854610203906001600160a01b031681565b60405161012591906118c2565b61015a61021e366004611755565b610aea565b600954610203906001600160a01b031681565b600754610203906001600160a01b031681565b61015a610bc9565b60015460ff1661026057600080fd5b60035460ff161561027057600080fd5b42600555436006819055600090610286906108e2565b90506000600760009054906101000a90046001600160a01b03166001600160a01b031663764720076040518163ffffffff1660e01b815260040160006040518083038186803b1580156102d857600080fd5b505afa1580156102ec573d6000803e3d6000fd5b505050506040513d6000823e601f3d908101601f191682016040526103149190810190611681565b925050508082101561032557600080fd5b600754600854604080516319d0138360e01b815290516001600160a01b0393841693909216916319d0138391600480820192602092909190829003018186803b15801561037157600080fd5b505afa158015610385573d6000803e3d6000fd5b505050506040513d601f19601f820116820180604052508101906103a9919061188d565b816001600160a01b03166318160ddd6040518163ffffffff1660e01b815260040160206040518083038186803b1580156103e257600080fd5b505afa1580156103f6573d6000803e3d6000fd5b505050506040513d601f19601f8201168201806040525081019061041a919061188d565b61042491906119e8565b6004819055610441906001600160a01b0383169033903090610c8b565b6003805460ff19166001179055600980546001600160a01b031916339081179091556004546040517fd0a009034e24a39106653c4903cf28b1947b8a9964d03206648e0f0a5de74a46926104969290916118fa565b60405180910390a1505050565b6008546001600160a01b0316156104b957600080fd5b600b5460ff16156104c957600080fd5b600780546001600160a01b039384166001600160a01b03199182161790915560088054929093169116179055600b805460ff19166001179055565b600061050f436108e2565b905090565b600260005414156105405760405162461bcd60e51b815260040161053790611946565b60405180910390fd5b600260005560015460ff1661055457600080fd5b60035460ff161561056457600080fd5b825184511461057257600080fd5b805182511461058057600080fd5b600061058a610504565b905061059a868686868686610ce9565b5050600160005550505050565b6007546001600160a01b031633146105be57600080fd5b60015460ff16156105ce57600080fd5b6001805460ff191681179055436002556040517fc8f99b9ac2a284b93c3652b9f064a6706724088cdafa9e0a8437c026191b2f0390600090a1565b60006002600054141561062e5760405162461bcd60e51b815260040161053790611946565b60026000908155604080516060810182526001600160a01b03868116808352602083018781526001948401858152600a8054968701815590965292517fc65a7bb8d6351c1cf70c95a316cc6a92839c986682d98bc35f958f4883f9d2a8600390950294850180546001600160a01b031916919093161790915590517fc65a7bb8d6351c1cf70c95a316cc6a92839c986682d98bc35f958f4883f9d2a983015591517fc65a7bb8d6351c1cf70c95a316cc6a92839c986682d98bc35f958f4883f9d2aa909101805460ff191691151591909117905561070e90333085610c8b565b600a5460009061072090600190611a29565b604080516001600160a01b0387168152602081018690529081018290529091507f8995102fba1c09c335213e7f0fb14bb67ced754740fe5dff224c43d5ec287f089060600160405180910390a160016000559392505050565b60015460ff1661078857600080fd5b60035460ff1661079757600080fd5b42620151806005546107a991906119d0565b11156107b457600080fd5b60075460048054604051630fdeac3760e21b8152918201526001600160a01b0390911690633f7ab0dc90602401600060405180830381600087803b1580156107fb57600080fd5b505af115801561080f573d6000803e3d6000fd5b50506003805460ff19908116909155600180549091169055505060075460408051631535eca960e01b815290516001600160a01b0390921691631535eca99160048082019260009290919082900301818387803b15801561086f57600080fd5b505af1158015610883573d6000803e3d6000fd5b50506009546004546040517fffe69c3e368ffaa4465b110170f194d40193561c8ca8defeab5d7bfccac173d394506108c8935033926001600160a01b031691906118d6565b60405180910390a1600980546001600160a01b0319169055565b600080600760009054906101000a90046001600160a01b03166001600160a01b03166327fc7c9c6040518163ffffffff1660e01b815260040160206040518083038186803b15801561093357600080fd5b505afa158015610947573d6000803e3d6000fd5b505050506040513d601f19601f8201168201806040525081019061096b919061188d565b600860009054906101000a90046001600160a01b03166001600160a01b031663063dff7f6040518163ffffffff1660e01b815260040160206040518083038186803b1580156109b957600080fd5b505afa1580156109cd573d6000803e3d6000fd5b505050506040513d601f19601f820116820180604052508101906109f1919061188d565b6109fb9190611a0a565b90506000600860009054906101000a90046001600160a01b03166001600160a01b031663db92164d6040518163ffffffff1660e01b815260040160206040518083038186803b158015610a4d57600080fd5b505afa158015610a61573d6000803e3d6000fd5b505050506040513d601f19601f82011682018060405250810190610a85919061188d565b670de0b6b3a764000060025486610a9c9190611a29565b610aa69190611a0a565b610ab091906119e8565b90506000610abe8284611a29565b95945050505050565b6007546001600160a01b03163314610ade57600080fd5b6001805460ff19169055565b60026000541415610b0d5760405162461bcd60e51b815260040161053790611946565b600260005560015460ff16610b2157600080fd5b60035460ff16610b3057600080fd5b4262015180600554610b4291906119d0565b11610b4c57600080fd5b6009546001600160a01b03163314610b6357600080fd5b8251845114610b7157600080fd5b8051825114610b7f57600080fd5b6000610b8c6006546108e2565b9050610b9c868686868686610ce9565b6007546004546001600160a01b0390911690610bbb9082903390611152565b505060016000555050505050565b600760009054906101000a90046001600160a01b03166001600160a01b0316638c72c54e6040518163ffffffff1660e01b815260040160206040518083038186803b158015610c1757600080fd5b505afa158015610c2b573d6000803e3d6000fd5b505050506040513d601f19601f82011682018060405250810190610c4f919061162b565b6001600160a01b0316336001600160a01b031614610c6c57600080fd5b60015460ff16610c7b57600080fd5b60035460ff1615610ade57600080fd5b610ce3846323b872dd60e01b858585604051602401610cac939291906118d6565b60408051601f198184030181529190526020810180516001600160e01b03166001600160e01b031990931692909217909152611176565b50505050565b60005b8551811015610d6e57610d5c33600760009054906101000a90046001600160a01b0316878481518110610d2157610d21611a9d565b6020026020010151898581518110610d3b57610d3b611a9d565b60200260200101516001600160a01b0316610c8b909392919063ffffffff16565b80610d6681611a6c565b915050610cec565b5060005b8351811015610dce576007548351610dbc916001600160a01b0316903390869085908110610da257610da2611a9d565b6020026020010151878581518110610d3b57610d3b611a9d565b80610dc681611a6c565b915050610d72565b506000806000600760009054906101000a90046001600160a01b03166001600160a01b031663764720076040518163ffffffff1660e01b815260040160006040518083038186803b158015610e2257600080fd5b505afa158015610e36573d6000803e3d6000fd5b505050506040513d6000823e601f3d908101601f19168201604052610e5e9190810190611681565b92509250925080841015610e7157600080fd5b6007546001600160a01b031660005b8351811015611008576000670de0b6b3a76400008088878581518110610ea857610ea8611a9d565b6020026020010151866001600160a01b03166318160ddd6040518163ffffffff1660e01b815260040160206040518083038186803b158015610ee957600080fd5b505afa158015610efd573d6000803e3d6000fd5b505050506040513d601f19601f82011682018060405250810190610f21919061188d565b610f2b9190611a0a565b610f359190611a0a565b610f3f91906119e8565b610f4991906119e8565b905080868381518110610f5e57610f5e611a9d565b60209081029190910101516007546040516370a0823160e01b81526001600160a01b03928316926370a0823192610f9a929116906004016118c2565b60206040518083038186803b158015610fb257600080fd5b505afa158015610fc6573d6000803e3d6000fd5b505050506040513d601f19601f82011682018060405250810190610fea919061188d565b1015610ff557600080fd5b508061100081611a6c565b915050610e80565b50600760009054906101000a90046001600160a01b03166001600160a01b031663121689236040518163ffffffff1660e01b8152600401600060405180830381600087803b15801561105957600080fd5b505af115801561106d573d6000803e3d6000fd5b5050600754604051633df0067f60e21b8152600481018990526001600160a01b03909116925063f7c019fc9150602401602060405180830381600087803b1580156110b757600080fd5b505af11580156110cb573d6000803e3d6000fd5b505050506040513d601f19601f820116820180604052508101906110ef919061188d565b506001805460ff1990811690915560038054909116905561110f8a611248565b7f3539af76bcb13fa381f2ec32e6d90b9c5e95055778ebdca0e7a192ba077558813360405161113e91906118c2565b60405180910390a150505050505050505050565b6111718363a9059cbb60e01b8484604051602401610cac9291906118fa565b505050565b60006111cb826040518060400160405280602081526020017f5361666545524332303a206c6f772d6c6576656c2063616c6c206661696c6564815250856001600160a01b03166113769092919063ffffffff16565b80519091501561117157808060200190518101906111e99190611826565b6111715760405162461bcd60e51b815260206004820152602a60248201527f5361666545524332303a204552433230206f7065726174696f6e20646964206e6044820152691bdd081cdd58d8d9595960b21b6064820152608401610537565b60005b8151811015611372576000600a83838151811061126a5761126a611a9d565b60200260200101518154811061128257611282611a9d565b60009182526020909120600390910201600281015490915060ff166112a657600080fd5b60028101805460ff19169055600181015481546112d0916001600160a01b03909116903390611152565b8054600182015484517f21c7da6732f0fae7bee8f0cb7c37fbd83a44e850e28deaf637caefe6ae528de49233926001600160a01b039091169187908790811061131b5761131b611a9d565b602002602001015160405161135794939291906001600160a01b0394851681529290931660208301526040820152606081019190915260800190565b60405180910390a1508061136a81611a6c565b91505061124b565b5050565b6060611385848460008561138f565b90505b9392505050565b6060824710156113f05760405162461bcd60e51b815260206004820152602660248201527f416464726573733a20696e73756666696369656e742062616c616e636520666f6044820152651c8818d85b1b60d21b6064820152608401610537565b843b61143e5760405162461bcd60e51b815260206004820152601d60248201527f416464726573733a2063616c6c20746f206e6f6e2d636f6e74726163740000006044820152606401610537565b600080866001600160a01b0316858760405161145a91906118a6565b60006040518083038185875af1925050503d8060008114611497576040519150601f19603f3d011682016040523d82523d6000602084013e61149c565b606091505b50915091506114ac8282866114b7565b979650505050505050565b606083156114c6575081611388565b8251156114d65782518084602001fd5b8160405162461bcd60e51b81526004016105379190611913565b600082601f83011261150157600080fd5b81356020611516611511836119ad565b61197d565b80838252828201915082860187848660051b890101111561153657600080fd5b60005b8581101561155e57813561154c81611ac9565b84529284019290840190600101611539565b5090979650505050505050565b600082601f83011261157c57600080fd5b8135602061158c611511836119ad565b80838252828201915082860187848660051b89010111156115ac57600080fd5b60005b8581101561155e578135845292840192908401906001016115af565b600082601f8301126115dc57600080fd5b815160206115ec611511836119ad565b80838252828201915082860187848660051b890101111561160c57600080fd5b60005b8581101561155e5781518452928401929084019060010161160f565b60006020828403121561163d57600080fd5b815161138881611ac9565b6000806040838503121561165b57600080fd5b823561166681611ac9565b9150602083013561167681611ac9565b809150509250929050565b60008060006060848603121561169657600080fd5b83516001600160401b03808211156116ad57600080fd5b818601915086601f8301126116c157600080fd5b815160206116d1611511836119ad565b8083825282820191508286018b848660051b89010111156116f157600080fd5b600096505b8487101561171d57805161170981611ac9565b8352600196909601959183019183016116f6565b509189015191975090935050508082111561173757600080fd5b50611744868287016115cb565b925050604084015190509250925092565b600080600080600060a0868803121561176d57600080fd5b85356001600160401b038082111561178457600080fd5b61179089838a0161156b565b965060208801359150808211156117a657600080fd5b6117b289838a016114f0565b955060408801359150808211156117c857600080fd5b6117d489838a0161156b565b945060608801359150808211156117ea57600080fd5b6117f689838a016114f0565b9350608088013591508082111561180c57600080fd5b506118198882890161156b565b9150509295509295909350565b60006020828403121561183857600080fd5b8151801515811461138857600080fd5b6000806040838503121561185b57600080fd5b823561186681611ac9565b946020939093013593505050565b60006020828403121561188657600080fd5b5035919050565b60006020828403121561189f57600080fd5b5051919050565b600082516118b8818460208701611a40565b9190910192915050565b6001600160a01b0391909116815260200190565b6001600160a01b039384168152919092166020820152604081019190915260600190565b6001600160a01b03929092168252602082015260400190565b6020815260008251806020840152611932816040850160208701611a40565b601f01601f19169190910160400192915050565b6020808252601f908201527f5265656e7472616e637947756172643a207265656e7472616e742063616c6c00604082015260600190565b604051601f8201601f191681016001600160401b03811182821017156119a5576119a5611ab3565b604052919050565b60006001600160401b038211156119c6576119c6611ab3565b5060051b60200190565b600082198211156119e3576119e3611a87565b500190565b600082611a0557634e487b7160e01b600052601260045260246000fd5b500490565b6000816000190483118215151615611a2457611a24611a87565b500290565b600082821015611a3b57611a3b611a87565b500390565b60005b83811015611a5b578181015183820152602001611a43565b83811115610ce35750506000910152565b6000600019821415611a8057611a80611a87565b5060010190565b634e487b7160e01b600052601160045260246000fd5b634e487b7160e01b600052603260045260246000fd5b634e487b7160e01b600052604160045260246000fd5b6001600160a01b0381168114611ade57600080fd5b5056fea26469706673582212201d52a30a1f94e3d3c1ba472d2e6158d558ad8a60f40a1f408578439012bd157b64736f6c63430008070033",
  "linkReferences": {},
  "deployedLinkReferences": {}
}