{
  "_format": "hh-sol-artifact-1",
  "contractName": "Basket",
  "sourceName": "contracts/Basket.sol",
  "abi": [
    {
      "anonymous": false,
      "inputs": [
        {
          "indexed": true,
          "internalType": "address",
          "name": "owner",
          "type": "address"
        },
        {
          "indexed": true,
          "internalType": "address",
          "name": "spender",
          "type": "address"
        },
        {
          "indexed": false,
          "internalType": "uint256",
          "name": "value",
          "type": "uint256"
        }
      ],
      "name": "Approval",
      "type": "event"
    },
    {
      "anonymous": false,
      "inputs": [
        {
          "indexed": true,
          "internalType": "address",
          "name": "_from",
          "type": "address"
        },
        {
          "indexed": false,
          "internalType": "uint256",
          "name": "_amount",
          "type": "uint256"
        }
      ],
      "name": "Burned",
      "type": "event"
    },
    {
      "anonymous": false,
      "inputs": [
        {
          "indexed": false,
          "internalType": "uint256",
          "name": "_newLicenseFee",
          "type": "uint256"
        }
      ],
      "name": "ChangedLicenseFee",
      "type": "event"
    },
    {
      "anonymous": false,
      "inputs": [
        {
          "indexed": false,
          "internalType": "uint256",
          "name": "_newMaxSupply",
          "type": "uint256"
        }
      ],
      "name": "ChangedMaxSupply",
      "type": "event"
    },
    {
      "anonymous": false,
      "inputs": [
        {
          "indexed": true,
          "internalType": "address",
          "name": "_newPublisher",
          "type": "address"
        }
      ],
      "name": "ChangedPublisher",
      "type": "event"
    },
    {
      "anonymous": false,
      "inputs": [
        {
          "indexed": false,
          "internalType": "address",
          "name": "_sender",
          "type": "address"
        }
      ],
      "name": "DeletedNewIndex",
      "type": "event"
    },
    {
      "anonymous": false,
      "inputs": [
        {
          "indexed": true,
          "internalType": "address",
          "name": "_to",
          "type": "address"
        },
        {
          "indexed": false,
          "internalType": "uint256",
          "name": "_amount",
          "type": "uint256"
        }
      ],
      "name": "Minted",
      "type": "event"
    },
    {
      "anonymous": false,
      "inputs": [
        {
          "indexed": false,
          "internalType": "uint256",
          "name": "",
          "type": "uint256"
        }
      ],
      "name": "NewIBRatio",
      "type": "event"
    },
    {
      "anonymous": false,
      "inputs": [],
      "name": "NewIndexSubmitted",
      "type": "event"
    },
    {
      "anonymous": false,
      "inputs": [
        {
          "indexed": false,
          "internalType": "uint256",
          "name": "_newLicenseFee",
          "type": "uint256"
        }
      ],
      "name": "NewLicenseFeeSubmitted",
      "type": "event"
    },
    {
      "anonymous": false,
      "inputs": [
        {
          "indexed": false,
          "internalType": "uint256",
          "name": "_newMaxSupply",
          "type": "uint256"
        }
      ],
      "name": "NewMaxSupplySubmitted",
      "type": "event"
    },
    {
      "anonymous": false,
      "inputs": [
        {
          "indexed": true,
          "internalType": "address",
          "name": "_newPublisher",
          "type": "address"
        }
      ],
      "name": "NewPublisherSubmitted",
      "type": "event"
    },
    {
      "anonymous": false,
      "inputs": [
        {
          "indexed": false,
          "internalType": "address",
          "name": "_publisher",
          "type": "address"
        }
      ],
      "name": "PublishedNewIndex",
      "type": "event"
    },
    {
      "anonymous": false,
      "inputs": [
        {
          "indexed": true,
          "internalType": "address",
          "name": "from",
          "type": "address"
        },
        {
          "indexed": true,
          "internalType": "address",
          "name": "to",
          "type": "address"
        },
        {
          "indexed": false,
          "internalType": "uint256",
          "name": "value",
          "type": "uint256"
        }
      ],
      "name": "Transfer",
      "type": "event"
    },
    {
      "anonymous": false,
      "inputs": [],
      "name": "WeightsSet",
      "type": "event"
    },
    {
      "inputs": [],
      "name": "ONE_YEAR",
      "outputs": [
        {
          "internalType": "uint256",
          "name": "",
          "type": "uint256"
        }
      ],
      "stateMutability": "view",
      "type": "function"
    },
    {
      "inputs": [],
      "name": "TIMELOCK_DURATION",
      "outputs": [
        {
          "internalType": "uint256",
          "name": "",
          "type": "uint256"
        }
      ],
      "stateMutability": "view",
      "type": "function"
    },
    {
      "inputs": [
        {
          "internalType": "address",
          "name": "owner",
          "type": "address"
        },
        {
          "internalType": "address",
          "name": "spender",
          "type": "address"
        }
      ],
      "name": "allowance",
      "outputs": [
        {
          "internalType": "uint256",
          "name": "",
          "type": "uint256"
        }
      ],
      "stateMutability": "view",
      "type": "function"
    },
    {
      "inputs": [
        {
          "internalType": "address",
          "name": "spender",
          "type": "address"
        },
        {
          "internalType": "uint256",
          "name": "amount",
          "type": "uint256"
        }
      ],
      "name": "approve",
      "outputs": [
        {
          "internalType": "bool",
          "name": "",
          "type": "bool"
        }
      ],
      "stateMutability": "nonpayable",
      "type": "function"
    },
    {
      "inputs": [],
      "name": "auction",
      "outputs": [
        {
          "internalType": "contract IAuction",
          "name": "",
          "type": "address"
        }
      ],
      "stateMutability": "view",
      "type": "function"
    },
    {
      "inputs": [
        {
          "internalType": "uint256",
          "name": "amount",
          "type": "uint256"
        }
      ],
      "name": "auctionBurn",
      "outputs": [],
      "stateMutability": "nonpayable",
      "type": "function"
    },
    {
      "inputs": [
        {
          "internalType": "address",
          "name": "account",
          "type": "address"
        }
      ],
      "name": "balanceOf",
      "outputs": [
        {
          "internalType": "uint256",
          "name": "",
          "type": "uint256"
        }
      ],
      "stateMutability": "view",
      "type": "function"
    },
    {
      "inputs": [
        {
          "internalType": "uint256",
          "name": "amount",
          "type": "uint256"
        }
      ],
      "name": "burn",
      "outputs": [],
      "stateMutability": "nonpayable",
      "type": "function"
    },
    {
      "inputs": [
        {
          "internalType": "uint256",
          "name": "newLicenseFee",
          "type": "uint256"
        }
      ],
      "name": "changeLicenseFee",
      "outputs": [],
      "stateMutability": "nonpayable",
      "type": "function"
    },
    {
      "inputs": [
        {
          "internalType": "address",
          "name": "newPublisher",
          "type": "address"
        }
      ],
      "name": "changePublisher",
      "outputs": [],
      "stateMutability": "nonpayable",
      "type": "function"
    },
    {
      "inputs": [],
      "name": "decimals",
      "outputs": [
        {
          "internalType": "uint8",
          "name": "",
          "type": "uint8"
        }
      ],
      "stateMutability": "view",
      "type": "function"
    },
    {
      "inputs": [
        {
          "internalType": "address",
          "name": "spender",
          "type": "address"
        },
        {
          "internalType": "uint256",
          "name": "subtractedValue",
          "type": "uint256"
        }
      ],
      "name": "decreaseAllowance",
      "outputs": [
        {
          "internalType": "bool",
          "name": "",
          "type": "bool"
        }
      ],
      "stateMutability": "nonpayable",
      "type": "function"
    },
    {
      "inputs": [],
      "name": "deleteNewIndex",
      "outputs": [],
      "stateMutability": "nonpayable",
      "type": "function"
    },
    {
      "inputs": [],
      "name": "factory",
      "outputs": [
        {
          "internalType": "contract IFactory",
          "name": "",
          "type": "address"
        }
      ],
      "stateMutability": "view",
      "type": "function"
    },
    {
      "inputs": [],
      "name": "getPendingWeights",
      "outputs": [
        {
          "internalType": "address[]",
          "name": "",
          "type": "address[]"
        },
        {
          "internalType": "uint256[]",
          "name": "",
          "type": "uint256[]"
        },
        {
          "internalType": "uint256",
          "name": "",
          "type": "uint256"
        }
      ],
      "stateMutability": "view",
      "type": "function"
    },
    {
      "inputs": [],
      "name": "ibRatio",
      "outputs": [
        {
          "internalType": "uint256",
          "name": "",
          "type": "uint256"
        }
      ],
      "stateMutability": "view",
      "type": "function"
    },
    {
      "inputs": [
        {
          "internalType": "address",
          "name": "spender",
          "type": "address"
        },
        {
          "internalType": "uint256",
          "name": "addedValue",
          "type": "uint256"
        }
      ],
      "name": "increaseAllowance",
      "outputs": [
        {
          "internalType": "bool",
          "name": "",
          "type": "bool"
        }
      ],
      "stateMutability": "nonpayable",
      "type": "function"
    },
    {
      "inputs": [
        {
          "components": [
            {
              "internalType": "uint256",
              "name": "licenseFee",
              "type": "uint256"
            },
            {
              "internalType": "string",
              "name": "tokenName",
              "type": "string"
            },
            {
              "internalType": "string",
              "name": "tokenSymbol",
              "type": "string"
            },
            {
              "internalType": "address",
              "name": "proposer",
              "type": "address"
            },
            {
              "internalType": "address[]",
              "name": "tokens",
              "type": "address[]"
            },
            {
              "internalType": "uint256[]",
              "name": "weights",
              "type": "uint256[]"
            },
            {
              "internalType": "address",
              "name": "basket",
              "type": "address"
            },
            {
              "internalType": "uint256",
              "name": "maxSupply",
              "type": "uint256"
            }
          ],
          "internalType": "struct IFactory.Proposal",
          "name": "proposal",
          "type": "tuple"
        },
        {
          "internalType": "contract IAuction",
          "name": "auction_",
          "type": "address"
        }
      ],
      "name": "initialize",
      "outputs": [],
      "stateMutability": "nonpayable",
      "type": "function"
    },
    {
      "inputs": [],
      "name": "initialized",
      "outputs": [
        {
          "internalType": "bool",
          "name": "",
          "type": "bool"
        }
      ],
      "stateMutability": "view",
      "type": "function"
    },
    {
      "inputs": [],
      "name": "lastFee",
      "outputs": [
        {
          "internalType": "uint256",
          "name": "",
          "type": "uint256"
        }
      ],
      "stateMutability": "view",
      "type": "function"
    },
    {
      "inputs": [],
      "name": "licenseFee",
      "outputs": [
        {
          "internalType": "uint256",
          "name": "",
          "type": "uint256"
        }
      ],
      "stateMutability": "view",
      "type": "function"
    },
    {
      "inputs": [],
      "name": "licenseFeeInc",
      "outputs": [
        {
          "internalType": "uint256",
          "name": "",
          "type": "uint256"
        }
      ],
      "stateMutability": "view",
      "type": "function"
    },
    {
      "inputs": [],
      "name": "maxSupply",
      "outputs": [
        {
          "internalType": "uint256",
          "name": "",
          "type": "uint256"
        }
      ],
      "stateMutability": "view",
      "type": "function"
    },
    {
      "inputs": [
        {
          "internalType": "uint256",
          "name": "amount",
          "type": "uint256"
        }
      ],
      "name": "mint",
      "outputs": [],
      "stateMutability": "nonpayable",
      "type": "function"
    },
    {
      "inputs": [
        {
          "internalType": "uint256",
          "name": "amount",
          "type": "uint256"
        },
        {
          "internalType": "address",
          "name": "to",
          "type": "address"
        }
      ],
      "name": "mintTo",
      "outputs": [],
      "stateMutability": "nonpayable",
      "type": "function"
    },
    {
      "inputs": [],
      "name": "name",
      "outputs": [
        {
          "internalType": "string",
          "name": "",
          "type": "string"
        }
      ],
      "stateMutability": "view",
      "type": "function"
    },
    {
      "inputs": [],
      "name": "pendingLicenseFee",
      "outputs": [
        {
          "internalType": "uint256",
          "name": "licenseFee",
          "type": "uint256"
        },
        {
          "internalType": "uint256",
          "name": "timestamp",
          "type": "uint256"
        }
      ],
      "stateMutability": "view",
      "type": "function"
    },
    {
      "inputs": [],
      "name": "pendingMaxSupply",
      "outputs": [
        {
          "internalType": "uint256",
          "name": "maxSupply",
          "type": "uint256"
        },
        {
          "internalType": "uint256",
          "name": "timestamp",
          "type": "uint256"
        }
      ],
      "stateMutability": "view",
      "type": "function"
    },
    {
      "inputs": [],
      "name": "pendingPublisher",
      "outputs": [
        {
          "internalType": "address",
          "name": "publisher",
          "type": "address"
        },
        {
          "internalType": "uint256",
          "name": "timestamp",
          "type": "uint256"
        }
      ],
      "stateMutability": "view",
      "type": "function"
    },
    {
      "inputs": [],
      "name": "pendingWeights",
      "outputs": [
        {
          "internalType": "uint256",
          "name": "timestamp",
          "type": "uint256"
        },
        {
          "internalType": "bool",
          "name": "pending",
          "type": "bool"
        },
        {
          "internalType": "uint256",
          "name": "minIbRatio",
          "type": "uint256"
        }
      ],
      "stateMutability": "view",
      "type": "function"
    },
    {
      "inputs": [
        {
          "internalType": "address[]",
          "name": "_tokens",
          "type": "address[]"
        },
        {
          "internalType": "uint256[]",
          "name": "_weights",
          "type": "uint256[]"
        },
        {
          "internalType": "uint256",
          "name": "_minIbRatio",
          "type": "uint256"
        }
      ],
      "name": "publishNewIndex",
      "outputs": [],
      "stateMutability": "nonpayable",
      "type": "function"
    },
    {
      "inputs": [],
      "name": "publisher",
      "outputs": [
        {
          "internalType": "address",
          "name": "",
          "type": "address"
        }
      ],
      "stateMutability": "view",
      "type": "function"
    },
    {
      "inputs": [
        {
          "internalType": "uint256",
          "name": "newMaxSupply",
          "type": "uint256"
        }
      ],
      "name": "setNewMaxSupply",
      "outputs": [],
      "stateMutability": "nonpayable",
      "type": "function"
    },
    {
      "inputs": [],
      "name": "setNewWeights",
      "outputs": [],
      "stateMutability": "nonpayable",
      "type": "function"
    },
    {
      "inputs": [],
      "name": "symbol",
      "outputs": [
        {
          "internalType": "string",
          "name": "",
          "type": "string"
        }
      ],
      "stateMutability": "view",
      "type": "function"
    },
    {
      "inputs": [
        {
          "internalType": "uint256",
          "name": "",
          "type": "uint256"
        }
      ],
      "name": "tokens",
      "outputs": [
        {
          "internalType": "address",
          "name": "",
          "type": "address"
        }
      ],
      "stateMutability": "view",
      "type": "function"
    },
    {
      "inputs": [],
      "name": "totalSupply",
      "outputs": [
        {
          "internalType": "uint256",
          "name": "",
          "type": "uint256"
        }
      ],
      "stateMutability": "view",
      "type": "function"
    },
    {
      "inputs": [
        {
          "internalType": "address",
          "name": "recipient",
          "type": "address"
        },
        {
          "internalType": "uint256",
          "name": "amount",
          "type": "uint256"
        }
      ],
      "name": "transfer",
      "outputs": [
        {
          "internalType": "bool",
          "name": "",
          "type": "bool"
        }
      ],
      "stateMutability": "nonpayable",
      "type": "function"
    },
    {
      "inputs": [
        {
          "internalType": "address",
          "name": "sender",
          "type": "address"
        },
        {
          "internalType": "address",
          "name": "recipient",
          "type": "address"
        },
        {
          "internalType": "uint256",
          "name": "amount",
          "type": "uint256"
        }
      ],
      "name": "transferFrom",
      "outputs": [
        {
          "internalType": "bool",
          "name": "",
          "type": "bool"
        }
      ],
      "stateMutability": "nonpayable",
      "type": "function"
    },
    {
      "inputs": [
        {
          "internalType": "uint256",
          "name": "newRatio",
          "type": "uint256"
        }
      ],
      "name": "updateIBRatio",
      "outputs": [
        {
          "internalType": "uint256",
          "name": "",
          "type": "uint256"
        }
      ],
      "stateMutability": "nonpayable",
      "type": "function"
    },
    {
      "inputs": [
        {
          "internalType": "address[]",
          "name": "_tokens",
          "type": "address[]"
        },
        {
          "internalType": "uint256[]",
          "name": "_weights",
          "type": "uint256[]"
        }
      ],
      "name": "validateWeights",
      "outputs": [],
      "stateMutability": "pure",
      "type": "function"
    },
    {
      "inputs": [
        {
          "internalType": "uint256",
          "name": "",
          "type": "uint256"
        }
      ],
      "name": "weights",
      "outputs": [
        {
          "internalType": "uint256",
          "name": "",
          "type": "uint256"
        }
      ],
      "stateMutability": "view",
      "type": "function"
    }
  ],
  "bytecode": "0x608060405266b1a2bc2ec5000060665534801561001b57600080fd5b506001606555613009806100306000396000f3fe608060405234801561001057600080fd5b50600436106101ee5760003560e01c806306fdde03146101f3578063095ea7b3146102115780630b0a34991461023457806312168923146102495780631535eca914610251578063158ef93e1461025957806316d3bfbb1461026657806318160ddd1461027f57806323b872dd1461028757806327fc7c9c1461029a578063313ce567146102a357806339509351146102b25780633f7ab0dc146102c557806342966c68146102d85780634306ccd3146102eb5780634623c81e1461031b5780634f64b2be14610325578063621a9ef11461034557806370a082311461036857806376472007146103915780637d9f6db5146103a8578063891a5658146103bb5780638c72c54e146103e057806395d89b41146103f35780639801134e146103fb5780639b58f19914610404578063a0712d6814610417578063a17f5aba1461042a578063a457c2d71461043d578063a9059cbb14610450578063a9d9d0c714610463578063ac55b0bf1461046c578063b5f163ff14610475578063b723b34e14610488578063b7c7d9a71461049b578063ba57b40c146104ae578063bc13d8b8146104bc578063c45a0155146104cf578063d5abeb01146104e2578063da632fea146104eb578063dd62ed3e146104fe578063f7c019fc14610537575b600080fd5b6101fb61054a565b6040516102089190612cc6565b60405180910390f35b61022461021f36600461295a565b6105dc565b6040519015158152602001610208565b610247610242366004612986565b6105f2565b005b61024761078d565b610247610810565b607b546102249060ff1681565b6102716301e187e081565b604051908152602001610208565b603554610271565b610224610295366004612919565b610910565b610271606c5481565b60405160128152602001610208565b6102246102c036600461295a565b6109c1565b6102476102d3366004612b99565b6109fd565b6102476102e6366004612b99565b610b00565b607354607454607554610300929160ff169083565b60408051938452911515602084015290820152606001610208565b6102716201518081565b610338610333366004612b99565b610c06565b6040516102089190612c0c565b607654607754610353919082565b60408051928352602083019190915201610208565b6102716103763660046128a6565b6001600160a01b031660009081526033602052604090205490565b610399610c30565b60405161020893929190612c39565b606b54610338906001600160a01b031681565b606d54606e546103d2916001600160a01b03169082565b604051610208929190612c20565b606854610338906001600160a01b031681565b6101fb610cf7565b610271607a5481565b6102476104123660046129e9565b610d06565b610247610425366004612b99565b611051565b610247610438366004612a77565b61105e565b61022461044b36600461295a565b611148565b61022461045e36600461295a565b6111e1565b61027160695481565b61027160665481565b610271610483366004612b99565b6111ee565b610247610496366004612bcb565b61120f565b6102476104a9366004612b99565b61136c565b606f54607054610353919082565b6102476104ca366004612b99565b61143f565b606a54610338906001600160a01b031681565b61027160675481565b6102476104f93660046128a6565b6115e3565b61027161050c3660046128e0565b6001600160a01b03918216600090815260346020908152604080832093909416825291909152205490565b610271610545366004612b99565b6116f8565b60606036805461055990612ec6565b80601f016020809104026020016040519081016040528092919081815260200182805461058590612ec6565b80156105d25780601f106105a7576101008083540402835291602001916105d2565b820191906000526020600020905b8154815290600101906020018083116105b557829003601f168201915b5050505050905090565b60006105e9338484611742565b50600192915050565b600082511161060057600080fd5b805182511461060e57600080fd5b81516000816001600160401b0381111561062a5761062a612f48565b604051908082528060200260200182016040528015610653578160200160208202803683370190505b50905060005b828110156107865760006001600160a01b031685828151811061067e5761067e612f32565b60200260200101516001600160a01b0316141561069a57600080fd5b60008482815181106106ae576106ae612f32565b6020026020010151116106c057600080fd5b60005b825181101561072f578281815181106106de576106de612f32565b60200260200101516001600160a01b031686838151811061070157610701612f32565b60200260200101516001600160a01b0316141561071d57600080fd5b8061072781612f01565b9150506106c3565b5084818151811061074257610742612f32565b602002602001015182828151811061075c5761075c612f32565b6001600160a01b03909216602092830291909101909101528061077e81612f01565b915050610659565b5050505050565b606b546001600160a01b031633146107a457600080fd5b607180546107b4916078916125e9565b50607280546107c5916079916125e9565b506074805460ff19169055606b546107e5906001600160a01b0316611866565b6040517ff36b123659e7f76fa32a2aa2e12774361455e152120e66b04d179d9140a4237090600090a1565b6068546001600160a01b03163314806108335750606b546001600160a01b031633145b61083c57600080fd5b606b60009054906101000a90046001600160a01b03166001600160a01b03166367c3b4836040518163ffffffff1660e01b815260040160206040518083038186803b15801561088a57600080fd5b505afa15801561089e573d6000803e3d6000fd5b505050506040513d601f19601f820116820180604052508101906108c29190612a55565b156108cc57600080fd5b6074805460ff191690556040517f7f753fc23b8d98e1d3f23e00c3e6337cb1c750bfcd79a5eb38198fdb2dd50e2490610906903390612c0c565b60405180910390a1565b600061091d8484846118d4565b6001600160a01b0384166000908152603460209081526040808320338452909152902054828110156109a75760405162461bcd60e51b815260206004820152602860248201527f45524332303a207472616e7366657220616d6f756e74206578636565647320616044820152676c6c6f77616e636560c01b60648201526084015b60405180910390fd5b6109b48533858403611742565b60019150505b9392505050565b3360008181526034602090815260408083206001600160a01b038716845290915281205490916105e99185906109f8908690612e2a565b611742565b606b546001600160a01b03163314610a1457600080fd5b60026065541415610a375760405162461bcd60e51b815260040161099e90612d77565b60026065556000610a4760355490565b9050610a5281611a92565b50603554610a603383611d0f565b6000610a6b60355490565b1115610a9d576000610a7c60355490565b82606c54610a8a9190612e64565b610a949190612e42565b606c5550610aaa565b670de0b6b3a7640000606c555b600080516020612fb4833981519152606c54604051610acb91815260200190565b60405180910390a16040518281523390600080516020612f74833981519152906020015b60405180910390a250506001606555565b60026065541415610b235760405162461bcd60e51b815260040161099e90612d77565b6002606555606b54604080516367c3b48360e01b815290516001600160a01b03909216916367c3b48391600480820192602092909190829003018186803b158015610b6d57600080fd5b505afa158015610b81573d6000803e3d6000fd5b505050506040513d601f19601f82011682018060405250810190610ba59190612a55565b15610baf57600080fd5b60008111610bbc57600080fd5b6000610bc760355490565b9050610bd281611a92565b610bdc3383611d0f565b610be68233611e4b565b6040518281523390600080516020612f7483398151915290602001610aef565b60788181548110610c1657600080fd5b6000918252602090912001546001600160a01b0316905081565b607554607180546040805160208084028201810190925282815260609485946000949093607293918591830182828015610c9357602002820191906000526020600020905b81546001600160a01b03168152600190910190602001808311610c75575b5050505050925081805480602002602001604051908101604052809291908181526020018280548015610ce557602002820191906000526020600020905b815481526020019060010190808311610cd1575b50505050509150925092509250909192565b60606037805461055990612ec6565b6068546001600160a01b03163314610d1d57600080fd5b60745460ff161561100257607354610d39906201518090612e2a565b421015610d4557600080fd5b606b60009054906101000a90046001600160a01b03166001600160a01b03166367c3b4836040518163ffffffff1660e01b815260040160206040518083038186803b158015610d9357600080fd5b505afa158015610da7573d6000803e3d6000fd5b505050506040513d601f19601f82011682018060405250810190610dcb9190612a55565b610e8157606b60009054906101000a90046001600160a01b03166001600160a01b0316636b64c7696040518163ffffffff1660e01b8152600401600060405180830381600087803b158015610e1f57600080fd5b505af1158015610e33573d6000803e3d6000fd5b50506068546040517f75f6678af486575bd3d5529cbbef61337718845507c76fa7c370715a7f6c4bd29350610e7492506001600160a01b0390911690612c0c565b60405180910390a1505050565b606b60009054906101000a90046001600160a01b03166001600160a01b031663089e136e6040518163ffffffff1660e01b815260040160206040518083038186803b158015610ecf57600080fd5b505afa158015610ee3573d6000803e3d6000fd5b505050506040513d601f19601f82011682018060405250810190610f079190612a55565b15610f1157505050565b606b60009054906101000a90046001600160a01b03166001600160a01b031663ae1d82f06040518163ffffffff1660e01b8152600401600060405180830381600087803b158015610f6157600080fd5b505af1158015610f75573d6000803e3d6000fd5b5050505060008111610f995760405162461bcd60e51b815260040161099e90612d47565b610fa383836105f2565b8251610fb6906071906020860190612639565b508151610fca90607290602085019061268e565b504260735560758190556040517fb1b4780912af5c8cad76579a8c63b2e0dde7d485776955bba7068660df7a811390600090a1505050565b600081116110225760405162461bcd60e51b815260040161099e90612d47565b61102c83836105f2565b6074805460ff191660011790558251610fb6906071906020860190612639565b505050565b61105b813361120f565b50565b606a546001600160a01b03161561107457600080fd5b607b5460ff161561108457600080fd5b607b805460ff191660011790556060820151606880546001600160a01b039283166001600160a01b0319918216179091558351606955606a8054821633179055606b805492841692909116919091179055670de0b6b3a7640000606c55608082015180516110fa91607891602090910190612639565b5060a082015180516111149160799160209091019061268e565b5060e0820151606755606b54611132906001600160a01b0316611866565b61114482602001518360400151611ef7565b5050565b3360009081526034602090815260408083206001600160a01b0386168452909152812054828110156111ca5760405162461bcd60e51b815260206004820152602560248201527f45524332303a2064656372656173656420616c6c6f77616e63652062656c6f77604482015264207a65726f60d81b606482015260840161099e565b6111d73385858403611742565b5060019392505050565b60006105e93384846118d4565b607981815481106111fe57600080fd5b600091825260209091200154905081565b600260655414156112325760405162461bcd60e51b815260040161099e90612d77565b6002606555606b54604080516367c3b48360e01b815290516001600160a01b03909216916367c3b48391600480820192602092909190829003018186803b15801561127c57600080fd5b505afa158015611290573d6000803e3d6000fd5b505050506040513d601f19601f820116820180604052508101906112b49190612a55565b156112be57600080fd5b600082116112cb57600080fd5b60006112d660355490565b6067549091506112e68483612e2a565b11156112f157600080fd5b6112fa81611a92565b6113048333611f76565b61130e8284612031565b606754603554111561131f57600080fd5b816001600160a01b03167f30385c845b448a36257a6a1716e6ad2e1bc2cbe333cde1e69fe849ad6511adfe8460405161135a91815260200190565b60405180910390a25050600160655550565b6068546001600160a01b0316331461138357600080fd5b603554811161139157600080fd5b607654158015906113a3575060765481145b15611406576077546113b9906201518090612e2a565b4210156113c557600080fd5b606781905560006076556040518181527f8e2c9753593ed4f1397b57187f06771c15ea739bffcb290ea6ed07dadb9fe5be906020015b60405180910390a150565b6076819055426077556040518181527f2e95024329023a8cd7349484ae59cc67a52401dd9a2f10f4636e6619187cf98e906020016113fb565b6068546001600160a01b0316331461145657600080fd5b606a60009054906101000a90046001600160a01b03166001600160a01b031663d5172c726040518163ffffffff1660e01b815260040160206040518083038186803b1580156114a457600080fd5b505afa1580156114b8573d6000803e3d6000fd5b505050506040513d601f19601f820116820180604052508101906114dc9190612bb2565b81101580156114ed57506069548114155b6114f657600080fd5b606f54158015906115085750606f5481145b156115645760705461151e906201518090612e2a565b42101561152a57600080fd5b60698190556000606f556040518181527f74eb18939a29d79421724f7a16ca267d96c1c381ae51e02011a0daec3932c68f906020016113fb565b60695481111561158e5760665460695461157e9083612e83565b111561158957600080fd5b6115aa565b6066548160695461159f9190612e83565b11156115aa57600080fd5b606f819055426070556040518181527fbd5dc0f7a57c40b35f45d757606b9431c68f5007f1ee9b0da8fc426433a7099a906020016113fb565b6068546001600160a01b031633146115fa57600080fd5b6001600160a01b03811661160d57600080fd5b606d546001600160a01b0316158015906116345750606d546001600160a01b038281169116145b156116aa57606e5461164a906201518090612e2a565b42101561165657600080fd5b606880546001600160a01b0383166001600160a01b03199182168117909255606d805490911690556040517fc03338f668383af1c20205e21efe0b67ba7bfda360184f445aad4e7b0e9de92390600090a250565b606d80546001600160a01b0319166001600160a01b03831690811790915542606e556040517f99b686e5f2cdb08efcde95954dac0c7b76fe862e82bc70154ee45a301fcba3f690600090a250565b606b546000906001600160a01b0316331461171257600080fd5b606c829055604051828152600080516020612fb48339815191529060200160405180910390a150606c545b919050565b6001600160a01b0383166117a45760405162461bcd60e51b8152602060048201526024808201527f45524332303a20617070726f76652066726f6d20746865207a65726f206164646044820152637265737360e01b606482015260840161099e565b6001600160a01b0382166118055760405162461bcd60e51b815260206004820152602260248201527f45524332303a20617070726f766520746f20746865207a65726f206164647265604482015261737360f01b606482015260840161099e565b6001600160a01b0383811660008181526034602090815260408083209487168084529482529182902085905590518481527f8c5be1e5ebec7d5bd14f71427d1e84f3dd0314c0f7b2291e5b200ac8c7c3b925910160405180910390a3505050565b60005b607954811015611144576118a88260006078848154811061188c5761188c612f32565b6000918252602090912001546001600160a01b031691906120fe565b6118c2826000196078848154811061188c5761188c612f32565b806118cc81612f01565b915050611869565b6001600160a01b0383166119385760405162461bcd60e51b815260206004820152602560248201527f45524332303a207472616e736665722066726f6d20746865207a65726f206164604482015264647265737360d81b606482015260840161099e565b6001600160a01b03821661199a5760405162461bcd60e51b815260206004820152602360248201527f45524332303a207472616e7366657220746f20746865207a65726f206164647260448201526265737360e81b606482015260840161099e565b6001600160a01b03831660009081526033602052604090205481811015611a125760405162461bcd60e51b815260206004820152602660248201527f45524332303a207472616e7366657220616d6f756e7420657863656564732062604482015265616c616e636560d01b606482015260840161099e565b6001600160a01b03808516600090815260336020526040808220858503905591851681529081208054849290611a49908490612e2a565b92505081905550826001600160a01b0316846001600160a01b0316600080516020612f9483398151915284604051611a8391815260200190565b60405180910390a35b50505050565b607a541580611a9f575080155b15611aab5742607a5550565b6000607a5442611abb9190612e83565b90506000670de0b6b3a76400006301e187e08360695486611adc9190612e64565b611ae69190612e64565b611af09190612e42565b611afa9190612e42565b606854606a5460408051631e6d5a4b60e01b81529051939450611bb7936001600160a01b0393841693670de0b6b3a7640000931691631e6d5a4b916004808301926020929190829003018186803b158015611b5457600080fd5b505afa158015611b68573d6000803e3d6000fd5b505050506040513d601f19601f82011682018060405250810190611b8c9190612bb2565b611b9e90670de0b6b3a7640000612e83565b611ba89085612e64565b611bb29190612e42565b612031565b606a5460408051638da5cb5b60e01b81529051611cb9926001600160a01b031691638da5cb5b916004808301926020929190829003018186803b158015611bfd57600080fd5b505afa158015611c11573d6000803e3d6000fd5b505050506040513d601f19601f82011682018060405250810190611c3591906128c3565b606a5460408051631e6d5a4b60e01b81529051670de0b6b3a7640000926001600160a01b031691631e6d5a4b916004808301926020929190829003018186803b158015611c8157600080fd5b505afa158015611c95573d6000803e3d6000fd5b505050506040513d601f19601f82011682018060405250810190611b9e9190612bb2565b42607a556000611cc860355490565b84606c54611cd69190612e64565b611ce09190612e42565b606c819055604051818152909150600080516020612fb48339815191529060200160405180910390a150505050565b6001600160a01b038216611d6f5760405162461bcd60e51b815260206004820152602160248201527f45524332303a206275726e2066726f6d20746865207a65726f206164647265736044820152607360f81b606482015260840161099e565b6001600160a01b03821660009081526033602052604090205481811015611de35760405162461bcd60e51b815260206004820152602260248201527f45524332303a206275726e20616d6f756e7420657863656564732062616c616e604482015261636560f01b606482015260840161099e565b6001600160a01b0383166000908152603360205260408120838303905560358054849290611e12908490612e83565b90915550506040518281526000906001600160a01b03851690600080516020612f948339815191529060200160405180910390a3505050565b60005b60795481101561104c576000670de0b6b3a764000080606c5460798581548110611e7a57611e7a612f32565b906000526020600020015487611e909190612e64565b611e9a9190612e64565b611ea49190612e42565b611eae9190612e42565b9050611ee4838260788581548110611ec857611ec8612f32565b6000918252602090912001546001600160a01b03169190612248565b5080611eef81612f01565b915050611e4e565b600054610100900460ff1680611f10575060005460ff16155b611f2c5760405162461bcd60e51b815260040161099e90612cf9565b600054610100900460ff16158015611f4e576000805461ffff19166101011790555b611f56612267565b611f6083836122d2565b801561104c576000805461ff0019169055505050565b60005b60795481101561104c576000670de0b6b3a764000080606c5460798581548110611fa557611fa5612f32565b906000526020600020015487611fbb9190612e64565b611fc59190612e64565b611fcf9190612e42565b611fd99190612e42565b905060008111611fe857600080fd5b61201e8330836078868154811061200157612001612f32565b6000918252602090912001546001600160a01b0316929190612367565b508061202981612f01565b915050611f79565b6001600160a01b0382166120875760405162461bcd60e51b815260206004820152601f60248201527f45524332303a206d696e7420746f20746865207a65726f206164647265737300604482015260640161099e565b80603560008282546120999190612e2a565b90915550506001600160a01b038216600090815260336020526040812080548392906120c6908490612e2a565b90915550506040518181526001600160a01b03831690600090600080516020612f948339815191529060200160405180910390a35050565b8015806121875750604051636eb1769f60e11b81523060048201526001600160a01b03838116602483015284169063dd62ed3e9060440160206040518083038186803b15801561214d57600080fd5b505afa158015612161573d6000803e3d6000fd5b505050506040513d601f19601f820116820180604052508101906121859190612bb2565b155b6121f25760405162461bcd60e51b815260206004820152603660248201527f5361666545524332303a20617070726f76652066726f6d206e6f6e2d7a65726f60448201527520746f206e6f6e2d7a65726f20616c6c6f77616e636560501b606482015260840161099e565b61104c8363095ea7b360e01b8484604051602401612211929190612c20565b60408051601f198184030181529190526020810180516001600160e01b03166001600160e01b03199093169290921790915261239f565b61104c8363a9059cbb60e01b8484604051602401612211929190612c20565b600054610100900460ff1680612280575060005460ff16155b61229c5760405162461bcd60e51b815260040161099e90612cf9565b600054610100900460ff161580156122be576000805461ffff19166101011790555b801561105b576000805461ff001916905550565b600054610100900460ff16806122eb575060005460ff16155b6123075760405162461bcd60e51b815260040161099e90612cf9565b600054610100900460ff16158015612329576000805461ffff19166101011790555b825161233c9060369060208601906126c9565b5081516123509060379060208501906126c9565b50801561104c576000805461ff0019169055505050565b6040516001600160a01b0380851660248301528316604482015260648101829052611a8c9085906323b872dd60e01b90608401612211565b60006123f4826040518060400160405280602081526020017f5361666545524332303a206c6f772d6c6576656c2063616c6c206661696c6564815250856001600160a01b03166124719092919063ffffffff16565b80519091501561104c57808060200190518101906124129190612a55565b61104c5760405162461bcd60e51b815260206004820152602a60248201527f5361666545524332303a204552433230206f7065726174696f6e20646964206e6044820152691bdd081cdd58d8d9595960b21b606482015260840161099e565b60606124808484600085612488565b949350505050565b6060824710156124e95760405162461bcd60e51b815260206004820152602660248201527f416464726573733a20696e73756666696369656e742062616c616e636520666f6044820152651c8818d85b1b60d21b606482015260840161099e565b843b6125375760405162461bcd60e51b815260206004820152601d60248201527f416464726573733a2063616c6c20746f206e6f6e2d636f6e7472616374000000604482015260640161099e565b600080866001600160a01b031685876040516125539190612bf0565b60006040518083038185875af1925050503d8060008114612590576040519150601f19603f3d011682016040523d82523d6000602084013e612595565b606091505b50915091506125a58282866125b0565b979650505050505050565b606083156125bf5750816109ba565b8251156125cf5782518084602001fd5b8160405162461bcd60e51b815260040161099e9190612cc6565b8280548282559060005260206000209081019282156126295760005260206000209182015b8281111561262957825482559160010191906001019061260e565b5061263592915061273c565b5090565b828054828255906000526020600020908101928215612629579160200282015b8281111561262957825182546001600160a01b0319166001600160a01b03909116178255602090920191600190910190612659565b828054828255906000526020600020908101928215612629579160200282015b828111156126295782518255916020019190600101906126ae565b8280546126d590612ec6565b90600052602060002090601f0160209004810192826126f75760008555612629565b82601f1061271057805160ff1916838001178555612629565b8280016001018555821561262957918201828111156126295782518255916020019190600101906126ae565b5b80821115612635576000815560010161273d565b803561173d81612f5e565b600082601f83011261276d57600080fd5b8135602061278261277d83612e07565b612dd7565b80838252828201915082860187848660051b89010111156127a257600080fd5b60005b858110156127ca5781356127b881612f5e565b845292840192908401906001016127a5565b5090979650505050505050565b600082601f8301126127e857600080fd5b813560206127f861277d83612e07565b80838252828201915082860187848660051b890101111561281857600080fd5b60005b858110156127ca5781358452928401929084019060010161281b565b600082601f83011261284857600080fd5b81356001600160401b0381111561286157612861612f48565b612874601f8201601f1916602001612dd7565b81815284602083860101111561288957600080fd5b816020850160208301376000918101602001919091529392505050565b6000602082840312156128b857600080fd5b81356109ba81612f5e565b6000602082840312156128d557600080fd5b81516109ba81612f5e565b600080604083850312156128f357600080fd5b82356128fe81612f5e565b9150602083013561290e81612f5e565b809150509250929050565b60008060006060848603121561292e57600080fd5b833561293981612f5e565b9250602084013561294981612f5e565b929592945050506040919091013590565b6000806040838503121561296d57600080fd5b823561297881612f5e565b946020939093013593505050565b6000806040838503121561299957600080fd5b82356001600160401b03808211156129b057600080fd5b6129bc8683870161275c565b935060208501359150808211156129d257600080fd5b506129df858286016127d7565b9150509250929050565b6000806000606084860312156129fe57600080fd5b83356001600160401b0380821115612a1557600080fd5b612a218783880161275c565b94506020860135915080821115612a3757600080fd5b50612a44868287016127d7565b925050604084013590509250925092565b600060208284031215612a6757600080fd5b815180151581146109ba57600080fd5b60008060408385031215612a8a57600080fd5b82356001600160401b0380821115612aa157600080fd5b908401906101008287031215612ab657600080fd5b612abe612dae565b82358152602083013582811115612ad457600080fd5b612ae088828601612837565b602083015250604083013582811115612af857600080fd5b612b0488828601612837565b604083015250612b1660608401612751565b6060820152608083013582811115612b2d57600080fd5b612b398882860161275c565b60808301525060a083013582811115612b5157600080fd5b612b5d888286016127d7565b60a083015250612b6f60c08401612751565b60c082015260e083013560e0820152809450505050612b9060208401612751565b90509250929050565b600060208284031215612bab57600080fd5b5035919050565b600060208284031215612bc457600080fd5b5051919050565b60008060408385031215612bde57600080fd5b82359150602083013561290e81612f5e565b60008251612c02818460208701612e9a565b9190910192915050565b6001600160a01b0391909116815260200190565b6001600160a01b03929092168252602082015260400190565b606080825284519082018190526000906020906080840190828801845b82811015612c7b5781516001600160a01b031684529284019290840190600101612c56565b5050508381038285015285518082528683019183019060005b81811015612cb057835183529284019291840191600101612c94565b5050809350505050826040830152949350505050565b6020815260008251806020840152612ce5816040850160208701612e9a565b601f01601f19169190910160400192915050565b6020808252602e908201527f496e697469616c697a61626c653a20636f6e747261637420697320616c72656160408201526d191e481a5b9a5d1a585b1a5e995960921b606082015260800190565b60208082526016908201527506d696e4962526174696f206d757374206265203e20360541b604082015260600190565b6020808252601f908201527f5265656e7472616e637947756172643a207265656e7472616e742063616c6c00604082015260600190565b60405161010081016001600160401b0381118282101715612dd157612dd1612f48565b60405290565b604051601f8201601f191681016001600160401b0381118282101715612dff57612dff612f48565b604052919050565b60006001600160401b03821115612e2057612e20612f48565b5060051b60200190565b60008219821115612e3d57612e3d612f1c565b500190565b600082612e5f57634e487b7160e01b600052601260045260246000fd5b500490565b6000816000190483118215151615612e7e57612e7e612f1c565b500290565b600082821015612e9557612e95612f1c565b500390565b60005b83811015612eb5578181015183820152602001612e9d565b83811115611a8c5750506000910152565b600181811c90821680612eda57607f821691505b60208210811415612efb57634e487b7160e01b600052602260045260246000fd5b50919050565b6000600019821415612f1557612f15612f1c565b5060010190565b634e487b7160e01b600052601160045260246000fd5b634e487b7160e01b600052603260045260246000fd5b634e487b7160e01b600052604160045260246000fd5b6001600160a01b038116811461105b57600080fdfe696de425f79f4a40bc6d2122ca50507f0efbeabbff86a84871b7196ab8ea8df7ddf252ad1be2c89b69c2b068fc378daa952ba7f163c4a11628f55a4df523b3efa1a1b7ab78876f7189087445ea5c3b24e2c620e85ca418855a3341eee17716e5a264697066735822122022357dbd0a1bdbc15b60a25e4266125a3b454fd6dcef4d39f63f24299bc83c3164736f6c63430008070033",
  "linkReferences": {},
  "deployedLinkReferences": {}
}